:030000000209C032
:0C09C000787FE4F6D8FD7581690204859B
:1009330054656D703A202020202020430048756DB7
:0B094300693A202020202025524800A7
:10086D00E4FE7D80EDD394004017ED5F6004D291DE
:10087D008002C291D290000000C290EDC313FD80A2
:10088D00E3D291D290A291E433000000C290D291B4
:01089D00FF5B
:01089E002237
:10089F00E4FED2917D80EDD394004010D290309140
:1008AF0003ED4206C290EDC313FD80EAEF24FFB3C0
:1008BF009291D290000000C290000000D291AF063A
:0108CF002206
:10094E00D291C29000D29000C29100C290000000DD
:09095E00D29000D29100C2902257
:10099400D291C290E4FFD290C2900FBF09F802092D
:0109A4004E04
:0D09A500E4FC1209947F1E12086DEC2FFF78
:0109B2002222
:0607E5008B3C8A3D893EB9
:1007EB00E4F543F54412094EE54214600704701812
:1007FB007F0380027F0512086DEF3395E0FEEF2536
:10080B0044F544EE3543F543900000AF82AE83E4EC
:10081B00FCFD7BFF7AFFF9F8D31203DD4006309124
:10082B0003A380E73091080544E544700205437F3C
:10083B000112089FAB3CAA3DA93EEF1203467F0174
:10084B0012089FAB3CAA3DA93E900001EF12035842
:10085B00E4FF12089FAB3FAA40A941EF120346AF3A
:01086B004448
:01086C002269
:060652008B3C8A3D893E4D
:10065800E4F545F5447543807542C07549547548BD
:10066800E375472575463D754DA2754CE7754B3BBF
:10067800754AB675510A7550D7754F23754E3C7536
:1006880055AC7554C57553A77552381203F38F5975
:100698008E588D578C56AB3FAA40A9411203F38F51
:1006A8005D8E5C8D5B8C5A7F0A7ED77D237C3CAB4C
:1006B8005DAA5CA95BA85A1200FBE4FBFA792078D2
:1006C800C212000A8F698E688D678C66AF59AE5862
:1006D800AD57AC56AB4DAA4CA94BA84A1200FBAB80
:1006E80059AA58A957A8561200FBC004C005C0064D
:1006F800C007AF59AE58AD57AC56AB49AA48A94741
:10070800A8461200FBD003D002D001D00012000A84
:10071800AB45AA44A943A84212000A8F618E608D96
:100728005F8C5EAF59AE58AD57AC56AB55AA54A9BD
:1007380053A8521200FBAB51AA50A94FA84E120061
:100748000AC004C005C006C007E4FFFE7DC87CC11E
:10075800AB69AA68A967A86612000AD003D002D0BC
:1007680001D0001200FBAB61AA60A95FA85E12006D
:100778000A8F658E648D638C62E4FFFE7DC87C42BF
:10078800AB65AA64A963A862120201600D400BE47C
:10079800F565F5647563C87562427FCD7ECC7DCC06
:1007A8007C3DAB65AA64A963A862120201500C756E
:1007B80065CD7564CC7563CC75623DAF69AE68ADC7
:1007C80067AC66AB3FAA40A941120413AF65AE649B
:0D07D800AD63AC62AB3CAA3DA93E02041328
:0D09B300C2A0D2A100D2A200C2A2AF802239
:10097E00C2A2A20092A0C2A100853C8000D2A20019
:06098E00C2A2000209B341
:0A09CC00C200EF4408F53C02097E6A
:0A09D600C200EF4404F53C02097E64
:1008D000C2A2C200753C3812097EC200753C3812B3
:1008E000097E7F041209CCC200753C0112097E7F8B
:0408F000020209D621
:10091400AE07ED700AC200EE4480F53C12097EBDBC
:0F092400010CC200EE24C04480F53C12097E2273
:1009670012032DFF6010D200F53C12097E74012995
:07097700F9E43AFA80EA22DC
:1008F400D3EF9400EE6480948040147D7D7C00ED01
:0F0904001D70011CED4C70F7EF1F70E41E80E1B9
:0109130022C1
:100485001208D0E4FDFF1209147BFF7A09793312B3
:1004950009670DE4FF1209147A09794012096712F8
:1004A5000994E4F52DF53F75400075412EF542FBA5
:1004B5007A0079291207E5EF252DF52D753F007591
:1004C500400075412E7542017B007A00792512079F
:1004D500E5EF252DF52D6006120994020648AC2599
:1004E500AD26E41202738F288E278D268C25AC2924
:1004F500AD2AE41202738F2C8E2B8D2A8C29753F21
:10050500007540007541297B007A00792512065255
:10051500E4FFFE7D207C41AB2CAA2BA92AA8291239
:1005250000FB1202AC8E218F22E4FFFE7D207C4170
:10053500AB28AA27A926A8251200FB1202AC8E23F8
:100545008F24E4FD7F05120914AE21AF227C037DC3
:10055500E812037AEF2430F52FB43003752F20AE5F
:1005650021AF227C037DE812037A7E007F64CFCD24
:10057500CFCECCCE12037AEF2430F530B43009E576
:100585002F64306003753020AE21AF227C007D647E
:1005950012037A7E007F0ACFCDCFCECCCE12037A5E
:1005A500EF2430F53175322EAE21AF227C007D0A65
:1005B50012037AED2430F5337534DF7B007A007948
:1005C5002F1209677D017F05120914AE23AF247C24
:1005D500037DE812037AEF2430F536B4300375361F
:1005E50020AE23AF247C037DE812037A7E007F646E
:1005F500CFCDCFCECCCE12037AEF2430F537B43041
:1006050009E53664306003753720AE23AF247C00DE
:100615007D6412037A7E007F0ACFCDCFCECCCE1279
:10062500037AEF2430F53875392EAE23AF247C00DC
:100635007D0A12037AED2430F53A7B007A0079368B
:0D0645001209677F207E031208F40204A74B
:10000300020318E86480F8E933E83360110460F010
:10001300ED33EC337009E8FCE9FDEAFEEBFF220463
:1000230060DED3EB9FEA9EE99DE8C2E78CF0C2F75E
:1000330095F0400CE8CCF8E9CDF9EACEFAEBCFFB2A
:100043001202E385D0F05804700320D5B3E804709E
:10005300075002B2D502032292D5EC0460F7E4CC38
:10006300C0E0C398F8603B94186008400DD0E0FBF3
:100073000202FAE4FBFAC9FC8028E830E406E4C98A
:10008300FBE4CAFCE830E305E4C9CACBFCE8540747
:100093006010F8C3E913F9EA13FAEB13FBEC13FC52
:1000A300D8F130F52FC3E49CFCEF9BFFEE9AFEEDF5
:1000B30099FDD0E0FBEF4E4D4C701222DB0302039F
:1000C3001FEC2CFCEF33FFEE33FEED33FDED30E799
:1000D300EB0202FAEF2BFFEE3AFEED39FDD0E0FB27
:1000E30050130BBB0003020322ED13FDEE13FEEFCF
:0800F30013FFEC13FC0202FAFA
:1000FB00EC4D6011E8497017ED33EC3304600DE4FF
:10010B00FCFFFEFD22E933E8330470F802031812FA
:10011B0002E358046009E4CC2481500628500902FC
:10012B00032228400302031FC0E0EB4A7044B9804E
:10013B0006D0E0FB02030EEF4E701CBD8008EBFFF8
:10014B00EAFEE9FD80EBE98DF0A4FEE5F00201E4A7
:10015B00E9CDF9EAFEEBFFEF89F0A4FCE5F0CE89DF
:10016B00F0A42EFFE435F0CD89F0A42DFEE435F09C
:10017B008067EF4E7005BD80D780C3EF8BF0A4ACCA
:10018B00F0EE8BF0A42CFCE435F0F8EF8AF0A42C05
:10019B00E5F038FCE433CB8DF0A42CFCE5F03BF818
:1001AB00EE8AF0A42CFCE5F038F8E433CF89F0A408
:1001BB002CFCE5F038CF3400CE89F0A42FFFE5F00E
:1001CB003EFEE433C98DF0A42EFEE5F039CD8AF066
:1001DB00A42FFFE5F03EFEE43DFD33D0E0FB5007DE
:1001EB000BBB000F020322EC2CFCEF33FFEE33FEB4
:0601FB00ED33FD0202FAE3
:1002010074F8CC6480CCC86480C8F582046043C3B0
:10021100EB9FF5F0EA9E42F0E99D42F0E89C45F043
:1002210060305018E5825FFFE582F42B5582FB5068
:10023100210ABA001D09B90019088016E5825BFB85
:10024100E582F42F5582FF50090EBE00050DBD0059
:10025100010CC3EB9FF5F0EA9E42F0E99D42F0E804
:0D0261009C45F06007CC4820E701B3EC227B
:10026E0075F020800E75F010800575F0087D007E0B
:10027E00007F003392D530D5031203CFEC334010FC
:10028E00EF33FFEE33FEED33FDEC33FCD5F0ED2214
:0E029E00E5F0247EA2D513CC92E7CDCEFF2250
:1002AC00EDD2E7CD33EC3392D524814006E4FFFE4A
:1002BC00FDFC22FCE4CFCECDCC24E0501174FF80A9
:1002CC00EDC3CC13CCCD13CDCE13CECF13CF047046
:0702DC00F030D5DE0203CF74
:1002E300E9D2E7C933E833F892D5EDD2E7CD33EC61
:0702F30033FC5002B2D522DA
:1002FA00EC30E7100FBF000C0EBE00080DBD000465
:10030A000BEB6014A2D5EB13FCED92E7FD2274FF10
:10031A00FCFDFEFF22E480F8A2D574FF13FC7D8069
:03032A00E480EF7D
:10032D00BB010689828A83E0225002E722BBFE02CE
:09033D00E32289828A83E4932201
:10034600BB010689828A83F0225002F722BBFE0196
:02035600F32290
:10035800F8BB010DE58229F582E5833AF583E8F0DB
:10036800225006E92582C8F622BBFE05E92582C887
:02037800F2226F
:10037A00BC000BBE0029EF8DF084FFADF022E4CC67
:10038A00F875F008EF2FFFEE33FEEC33FCEE9DEC30
:10039A00984005FCEE9DFE0FD5F0E9E4CEFD22ED76
:1003AA00F8F5F0EE8420D21CFEADF075F008EF2FC0
:1003BA00FFED33FD4007985006D5F0F222C398FDB1
:0503CA000FD5F0EA224E
:0E03CF00C3E49FFFE49EFEE49DFDE49CFC223F
:1003DD00EB9FF5F0EA9E42F0E99D42F0EC6480C897
:0603ED0064809845F02237
:1003F300BB010789828A830204395005E9F80204A4
:100403002DBBFE05E9F802044589828A8302045163
:10041300BB010789828A8302046D5005E9F802044F
:0A04230061BBFE05E9F8020479222E
:0C042D00E6FC08E6FD08E6FE08E6FF22FB
:0C043900E0FCA3E0FDA3E0FEA3E0FF2236
:0C044500E2FC08E2FD08E2FE08E2FF22F3
:10045100E493FC740193FD740293FE740393FF22F1
:0C046100ECF608EDF608EEF608EFF622C7
:0C046D00ECF0A3EDF0A3EEF0A3EFF02202
:0C047900ECF208EDF208EEF208EFF222BF
:00000001FF
